:0E00000012C0FECFFDCFFCCFFBCFFACF2BC23C
:10000E00F8CFF7CFF6CFF5CF7FC104C21AC2F1CF2A
:10001E00F0CFEFCFEECFEDCFF894EE27ECBBF1E0C3
:10002E00FBBFEBBFE5BFF8E1F1BDE1BD8DE0A2E0A6
:10003E00BB27ED938A95E9F780E094E0A0E6ED9377
:10004E000197E9F7EFE5EDBFE4E0EEBFC0E6D1E0E2
:10005E0023C2442039F52297929B02C0929801C088
:10006E00929AE1E04E2EE0E0E883E983A881B9811F
:10007E00529784F4A881B981AD57BC4FE881F981BC
:10008E00EB56FC4FE081EC93E881F9813196E883E1
:10009E00F983ECCFE0918303ECB9E1E05E2EE8EF5B
:1000AE00EAB922960895E0E0EAB9E0936C03E09392
:1000BE006F03E0937003E0E8EAB90895E0E4E2BB71
:1000CE000895E0917003E03009F41DC12797E0E038
:1000DE00EB83A0917003A63020F0E5DFEFDF2796CB
:1000EE0012C1AB81A53028F5E0916D03A8E6EA9F19
:1000FE00F001E05AFE4FE0936A03F0936B03E09138
:10010E006D03EF5FE0936D03E150A0916D03A53099
:10011E0018F0E0E0E0936D03A0916A03B0916B03D9
:10012E00AC59BF4FEC91E03021F0EB81EF5FEB83E8
:10013E00D8CFAB81A53020F0B6DFC0DF2796E3C065
:10014E00E0E0EB83A0916A03B0916B03A959BF4F16
:10015E00EC91E983E0917003E150E0937003EF5F5F
:10016E00A0916A03B0916B03AB59BF4FEC91E8833A
:10017E00A0916A03B0916B03AA59BF4FE0E0EC93D4
:10018E00A0916A03B0916B03AC91A73419F5E0917D
:10019E006A03F0916B03A181A035E1F4E0916A034B
:1001AE00F0916B03A281AA35A9F4E0916A03F09154
:1001BE006B03A381A43471F4E0916A03F0916B0395
:1001CE00A481A13439F4E0916A03F0916B03A58107
:1001DE00AC3211F027960895E4E6EC83E6E0EE8368
:1001EE00A0916A03B0916B03EE81F0E0AE0FBF1FDA
:1001FE00AC91AA3259F1A0916A03B0916B03EE81D2
:10020E00F0E0AE0FBF1FEC91EA83E881AE81AE172E
:10021E0020F0E981EF6FE98319C0EA81AC81EA270A
:10022E00EC83AA81AC3271F0AE3261F0EA81EF70EC
:10023E00EA83EB81F0E0EF58FC4FAA81A083EB81BB
:10024E00EF5FEB83EE81EF5FEE83CACFEE81EF5F60
:10025E00EE83A0916A03B0916B03F0E0AE0FBF1F67
:10026E00EC91ED83E07C19F0ED81E75FED83ED819C
:10027E00EF70ED83E295E07FED83EE81EF5FEE832D
:10028E00A0916A03B0916B03F0E0AE0FBF1FEC912B
:10029E00EA83E07C19F0EA81E75FEA83EA81EF7096
:1002AE00EA83AD81EA2BED83AC81EA1719F0E9817F
:1002BE00EF6FE983A0916A03B0916B03AA59BF4F08
:1002CE00EC91A981EA2BE983E03021F0F7DEEFEF24
:1002DE00E0938203E981E030A1F4E0E0E093820351
:1002EE00EE83AE81A23168F4B0E0AB56BC4FEE8126
:1002FE00F0E0EF58FC4FE081EC93EE81EF5FEE8380
:10030E00F0CF2796DECE08950A921A92AA93BA9348
:10031E00EA93FA93EFB7EA93FDD01CB10BB1143206
:10032E0079F5E0916C03A8E6EA9FF001E05AFE4FE2
:10033E00E0936803F0936903A0916803B091690399
:10034E00A959BF4FE0E0EC93A0916803B091690307
:10035E00AA59BF4FEFEFEC93E0E0E0936E03E0910C
:10036E006C03EF5FE0936C03E150A0916C03A5303A
:10037E0018F0E0E0E0936C03EFEFE0936F0336C00C
:10038E00E0916F03E03021F0A0916E03A43608F0E7
:10039E002DC01D30D9F4A0916803B0916903AB59FB
:1003AE00BF4FE0916E03F0E03397EC93A09168039A
:1003BE00B0916903AC59BF4FE0E0EC93E0936F034B
:1003CE00E0917003EF5FE09370030FC0A09168039C
:1003DE00B0916903E0916E03F0E0EA0FFB1F10830A
:1003EE00E0916E03EF5FE0936E03E1500871A09110
:1003FE006803B0916903A959BF4FEC91E02BEC93C0
:10040E008CD0E991EFBFF991E991B991A991199029
:10041E0009901895EA93FA93EFB7EA93E2E15E1624
:10042E0040F4E52DF0E0ED57FC4FE081ECB953942C
:10043E0003C0E8EDEAB94424E991EFBFF991E991DF
:10044E001895EA93EFB7EA93E8EDEAB94424E991F7
:10045E00EFBFE99118950A921A92FA926A937A93DB
:10046E008A939A93AA93BA93EA93FA93EFB7EA937D
:10047E00EAB7E078EABFE03009F0EBDDE991EFBFD3
:10048E00F991E991B991A99199918991799169918E
:10049E00F990199009901895E0E0E8BBE7BBE5BB31
:1004AE00E4BBE4E0E2BBE4E4E1BBE0E0E3BFE2BFD7
:1004BE00EFBDEDE0EEBDE0E0EDBDECBDE7BDE6BDB0
:1004CE00E7E0EBBDE8E0EABDE0E0E9BDE8BDE2BD96
:1004DE00E5BDE4BDE3BDEBB7EBBFE8E0E5BFE0E8AB
:1004EE00EABFE0E1E9BFE0E0EBB9E8EDEAB9E6E842
:1004FE00E0BDE0E0E0BDE3E0E9B9E0E8E8B9E0E066
:10050E00E0BFE6B9EDB9E6BFE0936C037894D9DDB0
:10051E00FECFFFCF1A930A9308950991199108956A
:00000001FF
