:0E00000012C0FECFFDCFFCCFFBCFFACFF3C274
:10000E00F8CFF7CFF6CFF5CF47C2CCC2E2C2F1CFD1
:10001E00F0CFEFCFEECFEDCFF894EE27ECBBF1E0C3
:10002E00FBBFEBBFE5BFF8E1F1BDE1BD8DE0A2E0A6
:10003E00BB27ED938A95E9F780E094E0A0E6ED9377
:10004E000197E9F7EFE5EDBFE4E0EEBFC0E6D1E0E2
:10005E00EBC2442099F52297929B02C0929801C060
:10006E00929AE1E04E2EE0E0E883E983A881B9811F
:10007E00519784F4A881B981AF5FBB4FE881F981B4
:10008E00E351FC4FE081EC93E881F9813196E883EE
:10009E00F983ECCFE091FF03E0931204E0910004AA
:1000AE00E0931304E091FE03E0931404E091010445
:1000BE00ECB9E1E05E2EE8EFEAB922960895E0E0B1
:1000CE00EAB9E093D403E093D703E093D803E0E8D2
:1000DE00EAB90895E0E4E2BB0895E091D803E03078
:1000EE0009F4D9C12797E0E0ED83A091D803A7309A
:1000FE0020F0E5DFEFDF2796CEC1AD81A63028F5E3
:10010E00E091D503A8E6EA9FF001E05AFE4FE09396
:10011E00D203F093D303E091D503EF5FE093D503C1
:10012E00E150A091D503A63018F0E0E0E093D5039E
:10013E00A091D203B091D303AC59BF4FEC91E030F4
:10014E0021F0ED81EF5FED83D8CFAD81A63020F0A9
:10015E00B6DFC0DF27969FC1E0E0ED83A091D2030A
:10016E00B091D303A959BF4FEC91E983E091D80325
:10017E00E150E093D803EF5FA091D203B091D30387
:10018E00AB59BF4FEC91E883A091D203B091D3034A
:10019E00AA59BF4FE0E0EC93A091D203B091D303E4
:1001AE00AC91A73421F5E091D203F091D303A18154
:1001BE00A035E9F4E091D203F091D303A281AA35E0
:1001CE0009F0B3C0E091D203F091D303A381A4341C
:1001DE0071F4E091D203F091D303A481A13439F4E8
:1001EE00E091D203F091D303A581AC3211F02796A2
:1001FE000895E4E6EB83E6E0EE83A091D203B0919E
:10020E00D303EE81F0E0AE0FBF1FAC91AA3259F1CD
:10021E00A091D203B091D303EE81F0E0AE0FBF1FD9
:10022E00EC91EA83E881AE81AE1720F0E981EF6FA1
:10023E00E98319C0EA81AB81EA27EB83AA81AC324C
:10024E0071F0AE3261F0EA81EF70EA83ED81F0E099
:10025E00E752FC4FAA81A083ED81EF5FED83EE8123
:10026E00EF5FEE83CACFEE81EF5FEE83A091D203F4
:10027E00B091D303F0E0AE0FBF1FEC91EC83E07CA6
:10028E0019F0EC81E75FEC83EC81EF70EC83E29583
:10029E00E07FEC83EE81EF5FEE83A091D203B0910D
:1002AE00D303F0E0AE0FBF1FEC91EA83E07C19F0B0
:1002BE00EA81E75FEA83EA81EF70EA83AC81EA2B99
:1002CE00EC83AB81EA1719F0E981EF6FE983A09116
:1002DE00D203B091D303AA59BF4FEC91A981EA2B57
:1002EE00E983E093EB03E03009F0F4DEE091EB03F9
:1002FE00E093FF03E091EC03E0930004E091EA0346
:10030E00E093FE03E0E0EE83AE81A13168F4B0E04D
:10031E00A351BC4FEE81F0E0E752FC4FE081EC932D
:10032E00EE81EF5FEE83F0CFB4C02197E091D20360
:10033E00F091D303A281A734A9F4E091D203F091F6
:10034E00D303A381A33571F4E091D203F091D303CB
:10035E00A481A63539F4E091D203F091D303A5819F
:10036E00AC3211F028960895E091D203F091D303A8
:10037E00A085A13319F4E0E0E093EA03ECE0EF830B
:10038E00E0E0E883A881A43008F06BC0A091D2030E
:10039E00B091D303EF81F0E0AE0FBF1FAC91AA3244
:1003AE0009F45FC0E0E0EE83AE81A430D0F4E981C1
:1003BE00AF81EA1720F4EA81EF6FEA8312C0A091B1
:1003CE00D203B091D303EF81F0E0AE0FBF1FAC911B
:1003DE00AC3219F4EE81EF5FEE83EF81EF5FEF83C6
:1003EE00E3CFA091D203B091D303EF81F0E0AE0F33
:1003FE00BF1FAC91AC3259F0A091D203B091D30390
:10040E00EF81F0E0AE0FBF1FAC91AA3209F425C008
:10041E00A091D203B091D303EF81F0E0AE0FBF1FD6
:10042E00AC91A03321F0EF81EF5FEF830DC0EF8130
:10043E00EF5FEF83A091D203B091D303F0E0AE0F44
:10044E00BF1FAC91A03331F0E091EA03EF5FE09370
:10045E00EA03E150EF81EF5FEF83E881EF5FE8831E
:10046E0091CFA091D203B091D303AA59BF4FEC9173
:10047E00AA81EA2BEA83E981AF81EA1718F4EA81AF
:10048E00EF6FEA83EA81E093EC03E03009F022DEBD
:10049E002196279622CE08950A921A92AA93BA937B
:1004AE00EA93FA93EFB7EA93FDD01CB10BB1143275
:1004BE0079F5E091D403A8E6EA9FF001E05AFE4FE9
:1004CE00E093D003F093D103A091D003B091D10368
:1004DE00A959BF4FE0E0EC93A091D003B091D103A6
:1004EE00AA59BF4FEFEFEC93E0E0E093D603E09113
:1004FE00D403EF5FE093D403E150A091D403A63070
:10050E0018F0E0E0E093D403EFEFE093D70336C0AA
:10051E00E091D703E03021F0A091D603A43608F085
:10052E002DC01D30D9F4A091D003B091D103AB5999
:10053E00BF4FE091D603F0E03397EC93A091D00338
:10054E00B091D103AC59BF4FE0E0EC93E093D703E9
:10055E00E091D803EF5FE093D8030FC0A091D003D2
:10056E00B091D103E091D603F0E0EA0FFB1F1083A8
:10057E00E091D603EF5FE093D603E1500871A091AE
:10058E00D003B091D103A959BF4FEC91E02BEC935E
:10059E008CD0E991EFBFF991E991B991A991199098
:1005AE0009901895EA93FA93EFB7EA93E4E15E1691
:1005BE0040F4E52DF0E0EF5FFB4FE081ECB9539492
:1005CE0003C0E8EDEAB94424E991EFBFF991E9914E
:1005DE001895EA93EFB7EA93E8EDEAB94424E99166
:1005EE00EFBFE99118950A921A92FA926A937A934A
:1005FE008A939A93AA93BA93EA93FA93EFB7EA93EC
:10060E00EAB7E078EABFE03009F023DDE991EFBF09
:10061E00F991E991B991A9919991899179916991FC
:10062E00F990199009901895E0E0E8BBE7BBE5BB9F
:10063E00E4BBE4E0E2BBE4E4E1BBE0E0E3BFE2BF45
:10064E00EFBDEDE0EEBDE0E0EDBDECBDE7BDE6BD1E
:10065E00E7E0EBBDE8E0EABDE0E0E9BDE8BDE2BD04
:10066E00E5BDE4BDE3BDEBB7EBBFE8E0E5BFE0E819
:10067E00EABFE0E1E9BFE0E0EBB9E8EDEAB9E6E8B0
:10068E00E0BDE0E0E0BDE3E0E9B9E0E8E8B9E0E0D4
:10069E00E0BFE6B9EDB9E6BFE093D40378941DDD73
:1006AE00FECFFFCF1A930A930895099119910895D9
:00000001FF
